{
  "contractName": "CryptToken",
  "abi": [
    {
      "inputs": [
        {
          "internalType": "string",
          "name": "_tokenName",
          "type": "string"
        },
        {
          "internalType": "string",
          "name": "_tokenSymbol",
          "type": "string"
        },
        {
          "internalType": "uint256",
          "name": "maxMintLimit",
          "type": "uint256"
        }
      ],
      "stateMutability": "nonpayable",
      "type": "constructor"
    },
    {
      "anonymous": false,
      "inputs": [
        {
          "indexed": true,
          "internalType": "address",
          "name": "_owner",
          "type": "address"
        },
        {
          "indexed": true,
          "internalType": "address",
          "name": "_spender",
          "type": "address"
        },
        {
          "indexed": false,
          "internalType": "uint256",
          "name": "_value",
          "type": "uint256"
        }
      ],
      "name": "Approval",
      "type": "event"
    },
    {
      "anonymous": false,
      "inputs": [
        {
          "indexed": true,
          "internalType": "address",
          "name": "_from",
          "type": "address"
        },
        {
          "indexed": true,
          "internalType": "address",
          "name": "_to",
          "type": "address"
        },
        {
          "indexed": false,
          "internalType": "uint256",
          "name": "_value",
          "type": "uint256"
        }
      ],
      "name": "Transfer",
      "type": "event"
    },
    {
      "inputs": [],
      "name": "pausedTransfers",
      "outputs": [
        {
          "internalType": "bool",
          "name": "",
          "type": "bool"
        }
      ],
      "stateMutability": "view",
      "type": "function",
      "constant": true
    },
    {
      "inputs": [
        {
          "internalType": "uint256",
          "name": "",
          "type": "uint256"
        }
      ],
      "name": "transactions",
      "outputs": [
        {
          "internalType": "address",
          "name": "from",
          "type": "address"
        },
        {
          "internalType": "address",
          "name": "to",
          "type": "address"
        },
        {
          "internalType": "uint256",
          "name": "value",
          "type": "uint256"
        }
      ],
      "stateMutability": "view",
      "type": "function",
      "constant": true
    },
    {
      "inputs": [],
      "name": "name",
      "outputs": [
        {
          "internalType": "string",
          "name": "",
          "type": "string"
        }
      ],
      "stateMutability": "view",
      "type": "function",
      "constant": true
    },
    {
      "inputs": [],
      "name": "symbol",
      "outputs": [
        {
          "internalType": "string",
          "name": "",
          "type": "string"
        }
      ],
      "stateMutability": "view",
      "type": "function",
      "constant": true
    },
    {
      "inputs": [],
      "name": "decimals",
      "outputs": [
        {
          "internalType": "uint8",
          "name": "",
          "type": "uint8"
        }
      ],
      "stateMutability": "pure",
      "type": "function",
      "constant": true
    },
    {
      "inputs": [
        {
          "internalType": "address",
          "name": "_to",
          "type": "address"
        },
        {
          "internalType": "uint256",
          "name": "_value",
          "type": "uint256"
        }
      ],
      "name": "transfer",
      "outputs": [
        {
          "internalType": "bool",
          "name": "success",
          "type": "bool"
        }
      ],
      "stateMutability": "nonpayable",
      "type": "function"
    },
    {
      "inputs": [
        {
          "internalType": "address",
          "name": "_from",
          "type": "address"
        },
        {
          "internalType": "address",
          "name": "_to",
          "type": "address"
        },
        {
          "internalType": "uint256",
          "name": "_value",
          "type": "uint256"
        }
      ],
      "name": "transferFrom",
      "outputs": [
        {
          "internalType": "bool",
          "name": "success",
          "type": "bool"
        }
      ],
      "stateMutability": "nonpayable",
      "type": "function"
    },
    {
      "inputs": [
        {
          "internalType": "address",
          "name": "_spender",
          "type": "address"
        },
        {
          "internalType": "uint256",
          "name": "_value",
          "type": "uint256"
        }
      ],
      "name": "approve",
      "outputs": [
        {
          "internalType": "bool",
          "name": "success",
          "type": "bool"
        }
      ],
      "stateMutability": "nonpayable",
      "type": "function"
    },
    {
      "inputs": [
        {
          "internalType": "address",
          "name": "_owner",
          "type": "address"
        },
        {
          "internalType": "address",
          "name": "_spender",
          "type": "address"
        }
      ],
      "name": "allowance",
      "outputs": [
        {
          "internalType": "uint256",
          "name": "remaining",
          "type": "uint256"
        }
      ],
      "stateMutability": "view",
      "type": "function",
      "constant": true
    },
    {
      "inputs": [
        {
          "internalType": "bool",
          "name": "_value",
          "type": "bool"
        }
      ],
      "name": "setPausedTransfers",
      "outputs": [],
      "stateMutability": "nonpayable",
      "type": "function"
    },
    {
      "inputs": [
        {
          "internalType": "uint256",
          "name": "_value",
          "type": "uint256"
        }
      ],
      "name": "setMaxMintLimit",
      "outputs": [],
      "stateMutability": "nonpayable",
      "type": "function"
    },
    {
      "inputs": [
        {
          "internalType": "address",
          "name": "client",
          "type": "address"
        }
      ],
      "name": "setVipClient",
      "outputs": [],
      "stateMutability": "nonpayable",
      "type": "function"
    },
    {
      "inputs": [
        {
          "internalType": "uint256",
          "name": "_value",
          "type": "uint256"
        }
      ],
      "name": "setPercentageOfFeeCharged",
      "outputs": [],
      "stateMutability": "nonpayable",
      "type": "function"
    },
    {
      "inputs": [],
      "name": "getMaxMintLimit",
      "outputs": [
        {
          "internalType": "uint256",
          "name": "",
          "type": "uint256"
        }
      ],
      "stateMutability": "view",
      "type": "function",
      "constant": true
    },
    {
      "inputs": [
        {
          "internalType": "address",
          "name": "client",
          "type": "address"
        }
      ],
      "name": "getVipClient",
      "outputs": [
        {
          "internalType": "bool",
          "name": "",
          "type": "bool"
        }
      ],
      "stateMutability": "view",
      "type": "function",
      "constant": true
    },
    {
      "inputs": [],
      "name": "getAccruedFee",
      "outputs": [
        {
          "internalType": "uint256",
          "name": "",
          "type": "uint256"
        }
      ],
      "stateMutability": "view",
      "type": "function",
      "constant": true
    },
    {
      "inputs": [],
      "name": "getPercentageOfFeeCharged",
      "outputs": [
        {
          "internalType": "uint256",
          "name": "",
          "type": "uint256"
        }
      ],
      "stateMutability": "view",
      "type": "function",
      "constant": true
    },
    {
      "inputs": [],
      "name": "getContractBalance",
      "outputs": [
        {
          "internalType": "uint256",
          "name": "",
          "type": "uint256"
        }
      ],
      "stateMutability": "view",
      "type": "function",
      "constant": true
    },
    {
      "inputs": [
        {
          "internalType": "address",
          "name": "account",
          "type": "address"
        }
      ],
      "name": "balanceOf",
      "outputs": [
        {
          "internalType": "uint256",
          "name": "balance",
          "type": "uint256"
        }
      ],
      "stateMutability": "view",
      "type": "function",
      "constant": true
    },
    {
      "inputs": [
        {
          "internalType": "address payable",
          "name": "_to",
          "type": "address"
        }
      ],
      "name": "donate",
      "outputs": [],
      "stateMutability": "payable",
      "type": "function",
      "payable": true
    },
    {
      "inputs": [
        {
          "internalType": "address",
          "name": "account",
          "type": "address"
        },
        {
          "internalType": "uint256",
          "name": "amount",
          "type": "uint256"
        }
      ],
      "name": "mint",
      "outputs": [],
      "stateMutability": "nonpayable",
      "type": "function"
    },
    {
      "inputs": [],
      "name": "withdrawAccruedFees",
      "outputs": [],
      "stateMutability": "nonpayable",
      "type": "function"
    }
  ],
  "bytecode": "0x60806040526000600b60006101000a81548160ff0219169083151502179055503480156200002c57600080fd5b5060405162002fbc38038062002fbc833981810160405281019062000052919062000364565b336000806101000a81548173ffffffffffffffffffffffffffffffffffffffff021916908373ffffffffffffffffffffffffffffffffffffffff1602179055508260059080519060200190620000aa929190620000dc565b508160069080519060200190620000c3929190620000dc565b5080600181905550600a60038190555050505062000463565b828054620000ea906200042d565b90600052602060002090601f0160209004810192826200010e57600085556200015a565b82601f106200012957805160ff19168380011785556200015a565b828001600101855582156200015a579182015b82811115620001595782518255916020019190600101906200013c565b5b5090506200016991906200016d565b5090565b5b80821115620001885760008160009055506001016200016e565b5090565b6000604051905090565b600080fd5b600080fd5b600080fd5b600080fd5b6000601f19601f8301169050919050565b7f4e487b7100000000000000000000000000000000000000000000000000000000600052604160045260246000fd5b620001f582620001aa565b810181811067ffffffffffffffff82111715620002175762000216620001bb565b5b80604052505050565b60006200022c6200018c565b90506200023a8282620001ea565b919050565b600067ffffffffffffffff8211156200025d576200025c620001bb565b5b6200026882620001aa565b9050602081019050919050565b60005b838110156200029557808201518184015260208101905062000278565b83811115620002a5576000848401525b50505050565b6000620002c2620002bc846200023f565b62000220565b905082815260208101848484011115620002e157620002e0620001a5565b5b620002ee84828562000275565b509392505050565b600082601f8301126200030e576200030d620001a0565b5b815162000320848260208601620002ab565b91505092915050565b6000819050919050565b6200033e8162000329565b81146200034a57600080fd5b50565b6000815190506200035e8162000333565b92915050565b60008060006060848603121562000380576200037f62000196565b5b600084015167ffffffffffffffff811115620003a157620003a06200019b565b5b620003af86828701620002f6565b935050602084015167ffffffffffffffff811115620003d357620003d26200019b565b5b620003e186828701620002f6565b9250506040620003f4868287016200034d565b9150509250925092565b7f4e487b7100000000000000000000000000000000000000000000000000000000600052602260045260246000fd5b600060028204905060018216806200044657607f821691505b602082108114156200045d576200045c620003fe565b5b50919050565b612b4980620004736000396000f3fe6080604052600436106101345760003560e01c806381ec80dd116100ab578063a9059cbb1161006f578063a9059cbb1461041e578063ada82c7d1461045b578063d7bb348114610472578063dd62ed3e1461049b578063ed76fcc1146104d8578063f926b50c1461051557610134565b806381ec80dd1461033557806383bd9186146103605780638c2e7b881461038b57806395d89b41146103b45780639ace38c2146103df57610134565b8063313ce567116100fd578063313ce5671461022557806340c10f19146102505780635f53e077146102795780636f9fb98a146102a257806370a08231146102cd57806373b0148a1461030a57610134565b8062362a951461013957806306fdde0314610155578063095ea7b314610180578063188c38fe146101bd57806323b872dd146101e8575b600080fd5b610153600480360381019061014e9190612188565b61053e565b005b34801561016157600080fd5b5061016a6106a7565b604051610177919061224e565b60405180910390f35b34801561018c57600080fd5b506101a760048036038101906101a291906122e4565b610739565b6040516101b4919061233f565b60405180910390f35b3480156101c957600080fd5b506101d2610864565b6040516101df919061233f565b60405180910390f35b3480156101f457600080fd5b5061020f600480360381019061020a919061235a565b610877565b60405161021c919061233f565b60405180910390f35b34801561023157600080fd5b5061023a61108b565b60405161024791906123c9565b60405180910390f35b34801561025c57600080fd5b50610277600480360381019061027291906122e4565b611094565b005b34801561028557600080fd5b506102a0600480360381019061029b9190612410565b6113d7565b005b3480156102ae57600080fd5b506102b7611482565b6040516102c4919061244c565b60405180910390f35b3480156102d957600080fd5b506102f460048036038101906102ef9190612467565b61148a565b604051610301919061244c565b60405180910390f35b34801561031657600080fd5b5061031f6114d3565b60405161032c919061244c565b60405180910390f35b34801561034157600080fd5b5061034a6114dd565b604051610357919061244c565b60405180910390f35b34801561036c57600080fd5b50610375611576565b604051610382919061244c565b60405180910390f35b34801561039757600080fd5b506103b260048036038101906103ad9190612467565b61160f565b005b3480156103c057600080fd5b506103c96116f8565b6040516103d6919061224e565b60405180910390f35b3480156103eb57600080fd5b5061040660048036038101906104019190612494565b61178a565b604051610415939291906124d0565b60405180910390f35b34801561042a57600080fd5b50610445600480360381019061044091906122e4565b611804565b604051610452919061233f565b60405180910390f35b34801561046757600080fd5b50610470611df9565b005b34801561047e57600080fd5b5061049960048036038101906104949190612494565b611f0a565b005b3480156104a757600080fd5b506104c260048036038101906104bd9190612507565b611fb0565b6040516104cf919061244c565b60405180910390f35b3480156104e457600080fd5b506104ff60048036038101906104fa9190612467565b612037565b60405161050c919061233f565b60405180910390f35b34801561052157600080fd5b5061053c60048036038101906105379190612494565b61208d565b005b670de0b6b3a7640000341115610589576040517f08c379a000000000000000000000000000000000000000000000000000000000815260040161058090612593565b60405180910390fd5b600a60003373ffffffffffffffffffffffffffffffffffffffff1673ffffffffffffffffffffffffffffffffffffffff1681526020019081526020016000205442101561060b576040517f08c379a000000000000000000000000000000000000000000000000000000000815260040161060290612625565b60405180910390fd5b8073ffffffffffffffffffffffffffffffffffffffff166108fc349081150290604051600060405180830381858888f19350505050158015610651573d6000803e3d6000fd5b5062278d00426106619190612674565b600a60003373ffffffffffffffffffffffffffffffffffffffff1673ffffffffffffffffffffffffffffffffffffffff1681526020019081526020016000208190555050565b6060600580546106b6906126f9565b80601f01602080910402602001604051908101604052809291908181526020018280546106e2906126f9565b801561072f5780601f106107045761010080835404028352916020019161072f565b820191906000526020600020905b81548152906001019060200180831161071257829003601f168201915b5050505050905090565b60008073ffffffffffffffffffffffffffffffffffffffff168373ffffffffffffffffffffffffffffffffffffffff16141561077457600080fd5b81600860003373ffffffffffffffffffffffffffffffffffffffff1673ffffffffffffffffffffffffffffffffffffffff16815260200190815260200160002060008573ffffffffffffffffffffffffffffffffffffffff1673ffffffffffffffffffffffffffffffffffffffff168152602001908152602001600020819055508273ffffffffffffffffffffffffffffffffffffffff163373ffffffffffffffffffffffffffffffffffffffff167f8c5be1e5ebec7d5bd14f71427d1e84f3dd0314c0f7b2291e5b200ac8c7c3b92584604051610852919061244c565b60405180910390a36001905092915050565b600b60009054906101000a900460ff1681565b6000600b60009054906101000a900460ff16156108c9576040517f08c379a00000000000000000000000000000000000000000000000000000000081526004016108c090612777565b60405180910390fd5b600073ffffffffffffffffffffffffffffffffffffffff168473ffffffffffffffffffffffffffffffffffffffff16141580156109335750600073ffffffffffffffffffffffffffffffffffffffff168373ffffffffffffffffffffffffffffffffffffffff1614155b61093c57600080fd5b81600860008673ffffffffffffffffffffffffffffffffffffffff1673ffffffffffffffffffffffffffffffffffffffff16815260200190815260200160002060003373ffffffffffffffffffffffffffffffffffffffff1673ffffffffffffffffffffffffffffffffffffffff1681526020019081526020016000205410156109fb576040517f08c379a00000000000000000000000000000000000000000000000000000000081526004016109f290612809565b60405180910390fd5b81600760008673ffffffffffffffffffffffffffffffffffffffff1673ffffffffffffffffffffffffffffffffffffffff168152602001908152602001600020541015610a7d576040517f08c379a0000000000000000000000000000000000000000000000000000000008152600401610a749061289b565b60405180910390fd5b600960008573ffffffffffffffffffffffffffffffffffffffff1673ffffffffffffffffffffffffffffffffffffffff16815260200190815260200160002060009054906101000a900460ff16610dcf5760006064610ada6114d3565b84610ae591906128bb565b610aef9190612944565b90508060026000828254610b039190612674565b9250508190555082600760008773ffffffffffffffffffffffffffffffffffffffff1673ffffffffffffffffffffffffffffffffffffffff1681526020019081526020016000206000828254610b599190612975565b925050819055508083610b6c9190612975565b600760008673ffffffffffffffffffffffffffffffffffffffff1673ffffffffffffffffffffffffffffffffffffffff1681526020019081526020016000206000828254610bba9190612674565b9250508190555082600860008773ffffffffffffffffffffffffffffffffffffffff1673ffffffffffffffffffffffffffffffffffffffff16815260200190815260200160002060003373ffffffffffffffffffffffffffffffffffffffff1673ffffffffffffffffffffffffffffffffffffffff1681526020019081526020016000206000828254610c4d9190612975565b92505081905550600c60405180606001604052808773ffffffffffffffffffffffffffffffffffffffff1681526020018673ffffffffffffffffffffffffffffffffffffffff16815260200185815250908060018154018082558091505060019003906000526020600020906003020160009091909190915060008201518160000160006101000a81548173ffffffffffffffffffffffffffffffffffffffff021916908373ffffffffffffffffffffffffffffffffffffffff16021790555060208201518160010160006101000a81548173ffffffffffffffffffffffffffffffffffffffff021916908373ffffffffffffffffffffffffffffffffffffffff1602179055506040820151816002015550508373ffffffffffffffffffffffffffffffffffffffff163373ffffffffffffffffffffffffffffffffffffffff167fddf252ad1be2c89b69c2b068fc378daa952ba7f163c4a11628f55a4df523b3ef85604051610dbd919061244c565b60405180910390a36001915050611084565b81600760008673ffffffffffffffffffffffffffffffffffffffff1673ffffffffffffffffffffffffffffffffffffffff1681526020019081526020016000206000828254610e1e9190612975565b9250508190555081600760008573ffffffffffffffffffffffffffffffffffffffff1673ffffffffffffffffffffffffffffffffffffffff1681526020019081526020016000206000828254610e749190612674565b9250508190555081600860008673ffffffffffffffffffffffffffffffffffffffff1673ffffffffffffffffffffffffffffffffffffffff16815260200190815260200160002060003373ffffffffffffffffffffffffffffffffffffffff1673ffffffffffffffffffffffffffffffffffffffff1681526020019081526020016000206000828254610f079190612975565b92505081905550600c60405180606001604052808673ffffffffffffffffffffffffffffffffffffffff1681526020018573ffffffffffffffffffffffffffffffffffffffff16815260200184815250908060018154018082558091505060019003906000526020600020906003020160009091909190915060008201518160000160006101000a81548173ffffffffffffffffffffffffffffffffffffffff021916908373ffffffffffffffffffffffffffffffffffffffff16021790555060208201518160010160006101000a81548173ffffffffffffffffffffffffffffffffffffffff021916908373ffffffffffffffffffffffffffffffffffffffff1602179055506040820151816002015550508273ffffffffffffffffffffffffffffffffffffffff163373ffffffffffffffffffffffffffffffffffffffff167fddf252ad1be2c89b69c2b068fc378daa952ba7f163c4a11628f55a4df523b3ef84604051611077919061244c565b60405180910390a3600190505b9392505050565b60006012905090565b60008054906101000a900473ffffffffffffffffffffffffffffffffffffffff1673ffffffffffffffffffffffffffffffffffffffff163373ffffffffffffffffffffffffffffffffffffffff1614611122576040517f08c379a0000000000000000000000000000000000000000000000000000000008152600401611119906129f5565b60405180910390fd5b600b60009054906101000a900460ff1615611172576040517f08c379a000000000000000000000000000000000000000000000000000000000815260040161116990612777565b60405180910390fd5b8060015410156111b7576040517f08c379a00000000000000000000000000000000000000000000000000000000081526004016111ae90612a87565b60405180910390fd5b600073ffffffffffffffffffffffffffffffffffffffff168273ffffffffffffffffffffffffffffffffffffffff1614156111f157600080fd5b80600160008282546112039190612975565b9250508190555080600760008473ffffffffffffffffffffffffffffffffffffffff1673ffffffffffffffffffffffffffffffffffffffff16815260200190815260200160002060008282546112599190612674565b92505081905550600c6040518060600160405280600073ffffffffffffffffffffffffffffffffffffffff1681526020018473ffffffffffffffffffffffffffffffffffffffff16815260200183815250908060018154018082558091505060019003906000526020600020906003020160009091909190915060008201518160000160006101000a81548173ffffffffffffffffffffffffffffffffffffffff021916908373ffffffffffffffffffffffffffffffffffffffff16021790555060208201518160010160006101000a81548173ffffffffffffffffffffffffffffffffffffffff021916908373ffffffffffffffffffffffffffffffffffffffff1602179055506040820151816002015550508173ffffffffffffffffffffffffffffffffffffffff16600073ffffffffffffffffffffffffffffffffffffffff167fddf252ad1be2c89b69c2b068fc378daa952ba7f163c4a11628f55a4df523b3ef836040516113cb919061244c565b60405180910390a35050565b60008054906101000a900473ffffffffffffffffffffffffffffffffffffffff1673ffffffffffffffffffffffffffffffffffffffff163373ffffffffffffffffffffffffffffffffffffffff1614611465576040517f08c379a000000000000000000000000000000000000000000000000000000000815260040161145c906129f5565b60405180910390fd5b80600b60006101000a81548160ff02191690831515021790555050565b600047905090565b6000600760008373ffffffffffffffffffffffffffffffffffffffff1673ffffffffffffffffffffffffffffffffffffffff168152602001908152602001600020549050919050565b6000600354905090565b60008060009054906101000a900473ffffffffffffffffffffffffffffffffffffffff1673ffffffffffffffffffffffffffffffffffffffff163373ffffffffffffffffffffffffffffffffffffffff161461156e576040517f08c379a0000000000000000000000000000000000000000000000000000000008152600401611565906129f5565b60405180910390fd5b600254905090565b60008060009054906101000a900473ffffffffffffffffffffffffffffffffffffffff1673ffffffffffffffffffffffffffffffffffffffff163373ffffffffffffffffffffffffffffffffffffffff1614611607576040517f08c379a00000000000000000000000000000000000000000000000000000000081526004016115fe906129f5565b60405180910390fd5b600154905090565b60008054906101000a900473ffffffffffffffffffffffffffffffffffffffff1673ffffffffffffffffffffffffffffffffffffffff163373ffffffffffffffffffffffffffffffffffffffff161461169d576040517f08c379a0000000000000000000000000000000000000000000000000000000008152600401611694906129f5565b60405180910390fd5b6001600960008373ffffffffffffffffffffffffffffffffffffffff1673ffffffffffffffffffffffffffffffffffffffff16815260200190815260200160002060006101000a81548160ff02191690831515021790555050565b606060068054611707906126f9565b80601f0160208091040260200160405190810160405280929190818152602001828054611733906126f9565b80156117805780601f1061175557610100808354040283529160200191611780565b820191906000526020600020905b81548152906001019060200180831161176357829003601f168201915b5050505050905090565b600c818154811061179a57600080fd5b90600052602060002090600302016000915090508060000160009054906101000a900473ffffffffffffffffffffffffffffffffffffffff16908060010160009054906101000a900473ffffffffffffffffffffffffffffffffffffffff16908060020154905083565b6000600b60009054906101000a900460ff1615611856576040517f08c379a000000000000000000000000000000000000000000000000000000000815260040161184d90612777565b60405180910390fd5b81600760003373ffffffffffffffffffffffffffffffffffffffff1673ffffffffffffffffffffffffffffffffffffffff1681526020019081526020016000205410156118d8576040517f08c379a00000000000000000000000000000000000000000000000000000000081526004016118cf90612af3565b60405180910390fd5b600073ffffffffffffffffffffffffffffffffffffffff168373ffffffffffffffffffffffffffffffffffffffff16141561191257600080fd5b600960003373ffffffffffffffffffffffffffffffffffffffff1673ffffffffffffffffffffffffffffffffffffffff16815260200190815260200160002060009054906101000a900460ff16611bd1576000606461196f6114d3565b8461197a91906128bb565b6119849190612944565b905080600260008282546119989190612674565b9250508190555082600760003373ffffffffffffffffffffffffffffffffffffffff1673ffffffffffffffffffffffffffffffffffffffff16815260200190815260200160002060008282546119ee9190612975565b925050819055508083611a019190612975565b600760008673ffffffffffffffffffffffffffffffffffffffff1673ffffffffffffffffffffffffffffffffffffffff1681526020019081526020016000206000828254611a4f9190612674565b92505081905550600c60405180606001604052803373ffffffffffffffffffffffffffffffffffffffff1681526020018673ffffffffffffffffffffffffffffffffffffffff16815260200185815250908060018154018082558091505060019003906000526020600020906003020160009091909190915060008201518160000160006101000a81548173ffffffffffffffffffffffffffffffffffffffff021916908373ffffffffffffffffffffffffffffffffffffffff16021790555060208201518160010160006101000a81548173ffffffffffffffffffffffffffffffffffffffff021916908373ffffffffffffffffffffffffffffffffffffffff1602179055506040820151816002015550508373ffffffffffffffffffffffffffffffffffffffff163373ffffffffffffffffffffffffffffffffffffffff167fddf252ad1be2c89b69c2b068fc378daa952ba7f163c4a11628f55a4df523b3ef85604051611bbf919061244c565b60405180910390a36001915050611df3565b81600760003373ffffffffffffffffffffffffffffffffffffffff1673ffffffffffffffffffffffffffffffffffffffff1681526020019081526020016000206000828254611c209190612975565b9250508190555081600760008573ffffffffffffffffffffffffffffffffffffffff1673ffffffffffffffffffffffffffffffffffffffff1681526020019081526020016000206000828254611c769190612674565b92505081905550600c60405180606001604052803373ffffffffffffffffffffffffffffffffffffffff1681526020018573ffffffffffffffffffffffffffffffffffffffff16815260200184815250908060018154018082558091505060019003906000526020600020906003020160009091909190915060008201518160000160006101000a81548173ffffffffffffffffffffffffffffffffffffffff021916908373ffffffffffffffffffffffffffffffffffffffff16021790555060208201518160010160006101000a81548173ffffffffffffffffffffffffffffffffffffffff021916908373ffffffffffffffffffffffffffffffffffffffff1602179055506040820151816002015550508273ffffffffffffffffffffffffffffffffffffffff163373ffffffffffffffffffffffffffffffffffffffff167fddf252ad1be2c89b69c2b068fc378daa952ba7f163c4a11628f55a4df523b3ef84604051611de6919061244c565b60405180910390a3600190505b92915050565b60008054906101000a900473ffffffffffffffffffffffffffffffffffffffff1673ffffffffffffffffffffffffffffffffffffffff163373ffffffffffffffffffffffffffffffffffffffff1614611e87576040517f08c379a0000000000000000000000000000000000000000000000000000000008152600401611e7e906129f5565b60405180910390fd5b600254600760008060009054906101000a900473ffffffffffffffffffffffffffffffffffffffff1673ffffffffffffffffffffffffffffffffffffffff1673ffffffffffffffffffffffffffffffffffffffff1681526020019081526020016000206000828254611ef99190612674565b925050819055506000600281905550565b60008054906101000a900473ffffffffffffffffffffffffffffffffffffffff1673ffffffffffffffffffffffffffffffffffffffff163373ffffffffffffffffffffffffffffffffffffffff1614611f98576040517f08c379a0000000000000000000000000000000000000000000000000000000008152600401611f8f906129f5565b60405180910390fd5b6000811415611fa657600080fd5b8060038190555050565b6000600860008473ffffffffffffffffffffffffffffffffffffffff1673ffffffffffffffffffffffffffffffffffffffff16815260200190815260200160002060008373ffffffffffffffffffffffffffffffffffffffff1673ffffffffffffffffffffffffffffffffffffffff16815260200190815260200160002054905092915050565b6000600960008373ffffffffffffffffffffffffffffffffffffffff1673ffffffffffffffffffffffffffffffffffffffff16815260200190815260200160002060009054906101000a900460ff169050919050565b60008054906101000a900473ffffffffffffffffffffffffffffffffffffffff1673ffffffffffffffffffffffffffffffffffffffff163373ffffffffffffffffffffffffffffffffffffffff161461211b576040517f08c379a0000000000000000000000000000000000000000000000000000000008152600401612112906129f5565b60405180910390fd5b8060018190555050565b600080fd5b600073ffffffffffffffffffffffffffffffffffffffff82169050919050565b60006121558261212a565b9050919050565b6121658161214a565b811461217057600080fd5b50565b6000813590506121828161215c565b92915050565b60006020828403121561219e5761219d612125565b5b60006121ac84828501612173565b91505092915050565b600081519050919050565b600082825260208201905092915050565b60005b838110156121ef5780820151818401526020810190506121d4565b838111156121fe576000848401525b50505050565b6000601f19601f8301169050919050565b6000612220826121b5565b61222a81856121c0565b935061223a8185602086016121d1565b61224381612204565b840191505092915050565b600060208201905081810360008301526122688184612215565b905092915050565b600061227b8261212a565b9050919050565b61228b81612270565b811461229657600080fd5b50565b6000813590506122a881612282565b92915050565b6000819050919050565b6122c1816122ae565b81146122cc57600080fd5b50565b6000813590506122de816122b8565b92915050565b600080604083850312156122fb576122fa612125565b5b600061230985828601612299565b925050602061231a858286016122cf565b9150509250929050565b60008115159050919050565b61233981612324565b82525050565b60006020820190506123546000830184612330565b92915050565b60008060006060848603121561237357612372612125565b5b600061238186828701612299565b935050602061239286828701612299565b92505060406123a3868287016122cf565b9150509250925092565b600060ff82169050919050565b6123c3816123ad565b82525050565b60006020820190506123de60008301846123ba565b92915050565b6123ed81612324565b81146123f857600080fd5b50565b60008135905061240a816123e4565b92915050565b60006020828403121561242657612425612125565b5b6000612434848285016123fb565b91505092915050565b612446816122ae565b82525050565b6000602082019050612461600083018461243d565b92915050565b60006020828403121561247d5761247c612125565b5b600061248b84828501612299565b91505092915050565b6000602082840312156124aa576124a9612125565b5b60006124b8848285016122cf565b91505092915050565b6124ca81612270565b82525050565b60006060820190506124e560008301866124c1565b6124f260208301856124c1565b6124ff604083018461243d565b949350505050565b6000806040838503121561251e5761251d612125565b5b600061252c85828601612299565b925050602061253d85828601612299565b9150509250929050565b7f596f7572207472616e73666572206c696d697420697320312065746865720000600082015250565b600061257d601e836121c0565b915061258882612547565b602082019050919050565b600060208201905081810360008301526125ac81612570565b9050919050565b7f596f75206e65656420746f2077616974206c6f6e67657220746f20626520616260008201527f6c6520746f20646f6e6174650000000000000000000000000000000000000000602082015250565b600061260f602c836121c0565b915061261a826125b3565b604082019050919050565b6000602082019050818103600083015261263e81612602565b9050919050565b7f4e487b7100000000000000000000000000000000000000000000000000000000600052601160045260246000fd5b600061267f826122ae565b915061268a836122ae565b9250827fffffffffffffffffffffffffffffffffffffffffffffffffffffffffffffffff038211156126bf576126be612645565b5b828201905092915050565b7f4e487b7100000000000000000000000000000000000000000000000000000000600052602260045260246000fd5b6000600282049050600182168061271157607f821691505b60208210811415612725576127246126ca565b5b50919050565b7f5472616e73666572732063757272656e746c7920706175736564000000000000600082015250565b6000612761601a836121c0565b915061276c8261272b565b602082019050919050565b6000602082019050818103600083015261279081612754565b9050919050565b7f596f7520617265206e6f7420616c6c6f77656420746f2073656e64207468697360008201527f2076616c75650000000000000000000000000000000000000000000000000000602082015250565b60006127f36026836121c0565b91506127fe82612797565b604082019050919050565b60006020820190508181036000830152612822816127e6565b9050919050565b7f5468652062616c616e6365206f662077686f20796f752061726520747279696e60008201527f6720746f2073656e6420697320696e73756666696369656e7400000000000000602082015250565b60006128856039836121c0565b915061289082612829565b604082019050919050565b600060208201905081810360008301526128b481612878565b9050919050565b60006128c6826122ae565b91506128d1836122ae565b9250817fffffffffffffffffffffffffffffffffffffffffffffffffffffffffffffffff048311821515161561290a57612909612645565b5b828202905092915050565b7f4e487b7100000000000000000000000000000000000000000000000000000000600052601260045260246000fd5b600061294f826122ae565b915061295a836122ae565b92508261296a57612969612915565b5b828204905092915050565b6000612980826122ae565b915061298b836122ae565b92508282101561299e5761299d612645565b5b828203905092915050565b7f596f7520617265206e6f7420616c6c6f77656400000000000000000000000000600082015250565b60006129df6013836121c0565b91506129ea826129a9565b602082019050919050565b60006020820190508181036000830152612a0e816129d2565b9050919050565b7f596f752063616e6e6f74206d696e74206d6f7265207468616e20746865206d6160008201527f78696d756d20616d6f756e740000000000000000000000000000000000000000602082015250565b6000612a71602c836121c0565b9150612a7c82612a15565b604082019050919050565b60006020820190508181036000830152612aa081612a64565b9050919050565b7f56616c7565206e6f7420656e6f75676820746f2073656e740000000000000000600082015250565b6000612add6018836121c0565b9150612ae882612aa7565b602082019050919050565b60006020820190508181036000830152612b0c81612ad0565b905091905056fea26469706673582212205ab23b520bab55d8c40cc9f02eaf9ab68c4d5fbf1bd67a716173cca557ac449d64736f6c63430008090033",
  "immutableReferences": {},
  "source": "// SPDX-License-Identifier: MIT\npragma solidity ^0.8.9;\n\ncontract CryptToken {\n    // VARIABLES, MAPPS AND DATA STRUCTURES\n    address private owner;\n\n    uint private _maxMintLimit;\n    uint private _accruedFee;\n    uint private _percentageOfFeeCharged;\n    uint private deadLine;\n\n    string private _name;\n    string private _symbol;\n\n    mapping(address => uint) private _balanceOf;\n    mapping(address => mapping(address => uint)) private _allowances;\n    mapping(address => bool) private _vipClients;\n    mapping(address => uint) private _transationsTime;\n\n    bool public pausedTransfers = false;\n    \n    struct Transaction {\n        address from;\n        address to;\n        uint value;\n    }\n\n    Transaction[] public transactions;\n\n    // CONSTRUCTOR\n    constructor(string memory _tokenName, string memory _tokenSymbol, uint maxMintLimit){\n        owner = msg.sender;\n        _name = _tokenName;\n        _symbol = _tokenSymbol;\n        _maxMintLimit = maxMintLimit;\n        _percentageOfFeeCharged = 10;\n    }\n\n    // EVENTS\n    event Transfer(address indexed _from, address indexed _to, uint _value);\n    event Approval(address indexed _owner, address indexed _spender, uint _value);\n\n    // MODIFIERS\n    modifier onlyOwner(){\n        require(msg.sender == owner, \"You are not allowed\");\n        _;\n    }\n\n    modifier onlyNoPause{\n        require(!pausedTransfers, \"Transfers currently paused\");\n        _;\n    }\n\n    //-------------------ERC20 TOKEN - begin ---------------------//\n    function name() public view returns (string memory){return _name;}\n    function symbol() public view returns (string memory) {return _symbol;}\n    function decimals() public pure returns (uint8) {return 18;}\n\n    function transfer(address _to, uint256 _value) public onlyNoPause returns (bool success) {\n        require(_balanceOf[msg.sender] >= _value, \"Value not enough to sent\");\n        require(_to != address(0));\n\n        if(!_vipClients[msg.sender]) {\n            uint transactionRate = (_value * getPercentageOfFeeCharged()) / 100;\n\n            _accruedFee += transactionRate;\n            _balanceOf[msg.sender] -= _value;\n            _balanceOf[_to] += _value - transactionRate;\n\n            transactions.push(Transaction(msg.sender, _to, _value));\n            emit Transfer(msg.sender, _to, _value);\n            return true;\n        }else{\n            _balanceOf[msg.sender] -= _value;\n            _balanceOf[_to] += _value;\n\n            transactions.push(Transaction(msg.sender, _to, _value));\n            emit Transfer(msg.sender, _to, _value);\n            return true;\n        }\n    }\n\n    function transferFrom(address _from, address _to, uint256 _value) public onlyNoPause returns (bool success) {\n        require(_from != address(0) && _to != address(0));\n        require(_allowances[_from][msg.sender] >= _value, \"You are not allowed to send this value\");\n        require(_balanceOf[_from] >= _value, \"The balance of who you are trying to send is insufficient\");\n\n        if(!_vipClients[_from]) {\n            uint transactionRate = (_value * getPercentageOfFeeCharged()) / 100;\n\n            _accruedFee += transactionRate;\n            _balanceOf[_from] -= _value;\n            _balanceOf[_to] += _value - transactionRate;\n            _allowances[_from][msg.sender] -= _value;\n\n            transactions.push(Transaction(_from, _to, _value));\n            emit Transfer(msg.sender, _to, _value);\n            return true;\n        }else{\n            _balanceOf[_from] -= _value;\n            _balanceOf[_to] += _value;\n            _allowances[_from][msg.sender] -= _value;\n\n            transactions.push(Transaction(_from, _to, _value));\n            emit Transfer(msg.sender, _to, _value);\n            return true;\n        }\n\n    }\n\n    function approve(address _spender, uint256 _value) public returns (bool success) {\n        require(_spender != address(0));\n        _allowances[msg.sender][_spender] = _value;\n\n        emit Approval(msg.sender, _spender, _value);\n        return true;\n    }\n\n    function allowance(address _owner, address _spender) public view returns (uint256 remaining) {\n        return _allowances[_owner][_spender];\n    } \n\n    //------------------SETTERS AND GETTERS--------------------------//\n    function setPausedTransfers(bool _value) public onlyOwner{pausedTransfers = _value;}\n    function setMaxMintLimit(uint _value) public onlyOwner{_maxMintLimit = _value;}\n    function setVipClient(address client) public onlyOwner{_vipClients[client] = true;}\n    function setPercentageOfFeeCharged(uint _value) public onlyOwner{require(_value != 0); _percentageOfFeeCharged = _value;}\n\n    function getMaxMintLimit() public view onlyOwner returns(uint){return _maxMintLimit;}\n    function getVipClient(address client) public view returns(bool){return _vipClients[client];}\n    function getAccruedFee() public view onlyOwner returns(uint){return _accruedFee;}\n    function getPercentageOfFeeCharged() public view returns(uint){return _percentageOfFeeCharged;}\n    function getContractBalance() external view returns(uint) {return address(this).balance;}\n    function balanceOf(address account) public view returns (uint256 balance) {return _balanceOf[account];}\n\n    function donate(address payable _to) public payable{\n        require(msg.value <= 1 ether, \"Your transfer limit is 1 ether\");\n        require(block.timestamp >= _transationsTime[msg.sender], \"You need to wait longer to be able to donate\");\n\n        _to.transfer(msg.value);\n        _transationsTime[msg.sender] = block.timestamp + 30 days;\n    }\n\n    function mint(address account, uint amount) public onlyOwner onlyNoPause{\n        require(_maxMintLimit >= amount, \"You cannot mint more than the maximum amount\");\n        require(account != address(0));\n\n        _maxMintLimit -= amount;\n        _balanceOf[account] += amount;\n        \n        transactions.push(Transaction(address(0), account, amount));\n        emit Transfer(address(0), account, amount);\n    }\n\n    function withdrawAccruedFees() public onlyOwner{\n        _balanceOf[owner] += _accruedFee;\n        _accruedFee = 0;\n    }\n}",
  "sourcePath": "/home/issac/code/truffle-crypt/contracts/CryptToken.sol",
  "compiler": {
    "name": "solc",
    "version": "0.8.9+commit.e5eed63a.Emscripten.clang"
  },
  "schemaVersion": "3.4.10",
  "updatedAt": "2022-11-18T11:40:38.585Z",
  "networkType": "ethereum",
  "devdoc": {
    "kind": "dev",
    "methods": {},
    "version": 1
  },
  "userdoc": {
    "kind": "user",
    "methods": {},
    "version": 1
  }
}